{
  "contractName": "VoteImage",
  "abi": [
    {
      "anonymous": false,
      "inputs": [
        {
          "indexed": true,
          "internalType": "address",
          "name": "_candidateAddress",
          "type": "address"
        },
        {
          "indexed": true,
          "internalType": "address",
          "name": "_voterAddress",
          "type": "address"
        },
        {
          "indexed": false,
          "internalType": "uint256",
          "name": "_totalVote",
          "type": "uint256"
        }
      ],
      "name": "Voted",
      "type": "event"
    },
    {
      "anonymous": false,
      "inputs": [
        {
          "indexed": true,
          "internalType": "address",
          "name": "canditateAddress",
          "type": "address"
        },
        {
          "indexed": false,
          "internalType": "string",
          "name": "name",
          "type": "string"
        }
      ],
      "name": "candidateCreated",
      "type": "event"
    },
    {
      "inputs": [
        {
          "internalType": "string",
          "name": "_name",
          "type": "string"
        },
        {
          "internalType": "string",
          "name": "_imageHash",
          "type": "string"
        }
      ],
      "name": "registerCandidate",
      "outputs": [],
      "stateMutability": "nonpayable",
      "type": "function"
    },
    {
      "inputs": [],
      "name": "getCandidates",
      "outputs": [
        {
          "components": [
            {
              "internalType": "uint256",
              "name": "id",
              "type": "uint256"
            },
            {
              "internalType": "uint256",
              "name": "totalVote",
              "type": "uint256"
            },
            {
              "internalType": "string",
              "name": "name",
              "type": "string"
            },
            {
              "internalType": "string",
              "name": "imageHash",
              "type": "string"
            },
            {
              "internalType": "address",
              "name": "candidateAddress",
              "type": "address"
            }
          ],
          "internalType": "struct VoteImage.Candidate[]",
          "name": "",
          "type": "tuple[]"
        }
      ],
      "stateMutability": "view",
      "type": "function",
      "constant": true
    },
    {
      "inputs": [
        {
          "internalType": "address",
          "name": "_forCandidate",
          "type": "address"
        }
      ],
      "name": "vote",
      "outputs": [],
      "stateMutability": "nonpayable",
      "type": "function"
    }
  ],
  "bytecode": "0x608060405234801561001057600080fd5b506111ee806100206000396000f3fe608060405234801561001057600080fd5b50600436106100415760003560e01c806306a49fce146100465780630dbce4dd146100645780636dd7d8ea14610080575b600080fd5b61004e61009c565b60405161005b9190610dca565b60405180910390f35b61007e60048036038101906100799190610b47565b61036c565b005b61009a60048036038101906100959190610b1a565b6106e3565b005b606060006100aa60006109a3565b905060008167ffffffffffffffff8111156100c8576100c76110cd565b5b60405190808252806020026020018201604052801561010157816020015b6100ee6109c7565b8152602001906001900390816100e65790505b50905060005b8281101561036357600060018261011e9190610ef1565b90506000600160006002600085815260200190815260200160002060009054906101000a900473ffffffffffffffffffffffffffffffffffffffff1673ffffffffffffffffffffffffffffffffffffffff1673ffffffffffffffffffffffffffffffffffffffff1681526020019081526020016000206040518060a001604052908160008201548152602001600182015481526020016002820180546101c390610fc5565b80601f01602080910402602001604051908101604052809291908181526020018280546101ef90610fc5565b801561023c5780601f106102115761010080835404028352916020019161023c565b820191906000526020600020905b81548152906001019060200180831161021f57829003601f168201915b5050505050815260200160038201805461025590610fc5565b80601f016020809104026020016040519081016040528092919081815260200182805461028190610fc5565b80156102ce5780601f106102a3576101008083540402835291602001916102ce565b820191906000526020600020905b8154815290600101906020018083116102b157829003601f168201915b505050505081526020016004820160009054906101000a900473ffffffffffffffffffffffffffffffffffffffff1673ffffffffffffffffffffffffffffffffffffffff1673ffffffffffffffffffffffffffffffffffffffff16815250509050808484815181106103435761034261109e565b5b60200260200101819052505050808061035b90610ff7565b915050610107565b50809250505090565b338073ffffffffffffffffffffffffffffffffffffffff16600160008373ffffffffffffffffffffffffffffffffffffffff1673ffffffffffffffffffffffffffffffffffffffff16815260200190815260200160002060040160009054906101000a900473ffffffffffffffffffffffffffffffffffffffff1673ffffffffffffffffffffffffffffffffffffffff16141561043e576040517f08c379a000000000000000000000000000000000000000000000000000000000815260040161043590610e50565b60405180910390fd5b600073ffffffffffffffffffffffffffffffffffffffff163373ffffffffffffffffffffffffffffffffffffffff16141561047857600080fd5b61048260006109b1565b600061048e60006109a3565b9050600033905060006040518060a001604052808481526020016000815260200189898080601f016020809104026020016040519081016040528093929190818152602001838380828437600081840152601f19601f82011690508083019250505050505050815260200187878080601f016020809104026020016040519081016040528093929190818152602001838380828437600081840152601f19601f8201169050808301925050505050505081526020018373ffffffffffffffffffffffffffffffffffffffff16815250905080600160008473ffffffffffffffffffffffffffffffffffffffff1673ffffffffffffffffffffffffffffffffffffffff168152602001908152602001600020600082015181600001556020820151816001015560408201518160020190805190602001906105cf929190610a0c565b5060608201518160030190805190602001906105ec929190610a0c565b5060808201518160040160006101000a81548173ffffffffffffffffffffffffffffffffffffffff021916908373ffffffffffffffffffffffffffffffffffffffff160217905550905050336002600085815260200190815260200160002060006101000a81548173ffffffffffffffffffffffffffffffffffffffff021916908373ffffffffffffffffffffffffffffffffffffffff1602179055508173ffffffffffffffffffffffffffffffffffffffff167f7fb466ed4996ab249b98fdada0b7c5dd4b5c983b452111224a609f3cf5e060fc89896040516106d1929190610dec565b60405180910390a25050505050505050565b808073ffffffffffffffffffffffffffffffffffffffff16600160008373ffffffffffffffffffffffffffffffffffffffff1673ffffffffffffffffffffffffffffffffffffffff16815260200190815260200160002060040160009054906101000a900473ffffffffffffffffffffffffffffffffffffffff1673ffffffffffffffffffffffffffffffffffffffff16146107b4576040517f08c379a00000000000000000000000000000000000000000000000000000000081526004016107ab90610e30565b60405180910390fd5b60001515600360003373ffffffffffffffffffffffffffffffffffffffff1673ffffffffffffffffffffffffffffffffffffffff16815260200190815260200160002060009054906101000a900460ff16151514610847576040517f08c379a000000000000000000000000000000000000000000000000000000000815260040161083e90610e10565b60405180910390fd5b6001600360003373ffffffffffffffffffffffffffffffffffffffff1673ffffffffffffffffffffffffffffffffffffffff16815260200190815260200160002060006101000a81548160ff02191690831515021790555060018060008473ffffffffffffffffffffffffffffffffffffffff1673ffffffffffffffffffffffffffffffffffffffff16815260200190815260200160002060010160008282546108f19190610ef1565b925050819055503373ffffffffffffffffffffffffffffffffffffffff168273ffffffffffffffffffffffffffffffffffffffff167f174ba19ba3c8bb5c679c87e51db79fff7c3f04bb84c1fd55b7dacb470b674aa6600160008673ffffffffffffffffffffffffffffffffffffffff1673ffffffffffffffffffffffffffffffffffffffff168152602001908152602001600020600101546040516109979190610e70565b60405180910390a35050565b600081600001549050919050565b6001816000016000828254019250508190555050565b6040518060a0016040528060008152602001600081526020016060815260200160608152602001600073ffffffffffffffffffffffffffffffffffffffff1681525090565b828054610a1890610fc5565b90600052602060002090601f016020900481019282610a3a5760008555610a81565b82601f10610a5357805160ff1916838001178555610a81565b82800160010185558215610a81579182015b82811115610a80578251825591602001919060010190610a65565b5b509050610a8e9190610a92565b5090565b5b80821115610aab576000816000905550600101610a93565b5090565b600081359050610abe816111a1565b92915050565b60008083601f840112610ada57610ad9611101565b5b8235905067ffffffffffffffff811115610af757610af66110fc565b5b602083019150836001820283011115610b1357610b12611106565b5b9250929050565b600060208284031215610b3057610b2f611110565b5b6000610b3e84828501610aaf565b91505092915050565b60008060008060408587031215610b6157610b60611110565b5b600085013567ffffffffffffffff811115610b7f57610b7e61110b565b5b610b8b87828801610ac4565b9450945050602085013567ffffffffffffffff811115610bae57610bad61110b565b5b610bba87828801610ac4565b925092505092959194509250565b6000610bd48383610d2f565b905092915050565b610be581610f47565b82525050565b6000610bf682610e9b565b610c008185610ebe565b935083602082028501610c1285610e8b565b8060005b85811015610c4e5784840389528151610c2f8582610bc8565b9450610c3a83610eb1565b925060208a01995050600181019050610c16565b50829750879550505050505092915050565b6000610c6c8385610ee0565b9350610c79838584610f83565b610c8283611115565b840190509392505050565b6000610c9882610ea6565b610ca28185610ecf565b9350610cb2818560208601610f92565b610cbb81611115565b840191505092915050565b6000610cd3601483610ee0565b9150610cde82611126565b602082019050919050565b6000610cf6601783610ee0565b9150610d018261114f565b602082019050919050565b6000610d19601c83610ee0565b9150610d2482611178565b602082019050919050565b600060a083016000830151610d476000860182610dac565b506020830151610d5a6020860182610dac565b5060408301518482036040860152610d728282610c8d565b91505060608301518482036060860152610d8c8282610c8d565b9150506080830151610da16080860182610bdc565b508091505092915050565b610db581610f79565b82525050565b610dc481610f79565b82525050565b60006020820190508181036000830152610de48184610beb565b905092915050565b60006020820190508181036000830152610e07818486610c60565b90509392505050565b60006020820190508181036000830152610e2981610cc6565b9050919050565b60006020820190508181036000830152610e4981610ce9565b9050919050565b60006020820190508181036000830152610e6981610d0c565b9050919050565b6000602082019050610e856000830184610dbb565b92915050565b6000819050602082019050919050565b600081519050919050565b600081519050919050565b6000602082019050919050565b600082825260208201905092915050565b600082825260208201905092915050565b600082825260208201905092915050565b6000610efc82610f79565b9150610f0783610f79565b9250827fffffffffffffffffffffffffffffffffffffffffffffffffffffffffffffffff03821115610f3c57610f3b611040565b5b828201905092915050565b6000610f5282610f59565b9050919050565b600073ffffffffffffffffffffffffffffffffffffffff82169050919050565b6000819050919050565b82818337600083830152505050565b60005b83811015610fb0578082015181840152602081019050610f95565b83811115610fbf576000848401525b50505050565b60006002820490506001821680610fdd57607f821691505b60208210811415610ff157610ff061106f565b5b50919050565b600061100282610f79565b91507fffffffffffffffffffffffffffffffffffffffffffffffffffffffffffffffff82141561103557611034611040565b5b600182019050919050565b7f4e487b7100000000000000000000000000000000000000000000000000000000600052601160045260246000fd5b7f4e487b7100000000000000000000000000000000000000000000000000000000600052602260045260246000fd5b7f4e487b7100000000000000000000000000000000000000000000000000000000600052603260045260246000fd5b7f4e487b7100000000000000000000000000000000000000000000000000000000600052604160045260246000fd5b600080fd5b600080fd5b600080fd5b600080fd5b600080fd5b6000601f19601f8301169050919050565b7f5573657220697320616c726561647920766f7465000000000000000000000000600082015250565b7f63616e646964617465206e6f7420726567697374726564000000000000000000600082015250565b7f63616e64696461746520616c7265616479207265676973746572656400000000600082015250565b6111aa81610f47565b81146111b557600080fd5b5056fea264697066735822122024f70930d8f93333854b125b741cf197a2e97afe91df37c7ba10cb7e69e3172e64736f6c63430008070033",
  "immutableReferences": {},
  "source": "// SPDX-License-Identifier: MIT\r\npragma solidity >=0.5.16 <0.9.0;\r\n\r\n\r\nimport \"@openzeppelin/contracts/utils/Counters.sol\";\r\n\r\ncontract VoteImage {\r\n\r\n    struct Candidate {\r\n        uint id;\r\n        uint totalVote;\r\n        string name;\r\n        string imageHash;\r\n        address candidateAddress;\r\n    }\r\n    using Counters for Counters.Counter;\r\n    Counters.Counter private candidatesIds;\r\n\r\n    mapping(address => Candidate) private candidates;\r\n    mapping(uint=> address ) private accounts;\r\n    mapping(address=> bool)private voter;\r\n\r\n    event Voted(address indexed _candidateAddress, address indexed _voterAddress, uint _totalVote);\r\n    event candidateCreated(address indexed canditateAddress, string name);\r\nmodifier candidateRegistred(address _address){\r\n       require(candidates[_address].candidateAddress == _address ,\r\n       \"candidate not registred\");\r\n      _;\r\n   }\r\nmodifier candidateNoExist(address _address){\r\n       require(candidates[_address].candidateAddress != _address ,\r\n       \"candidate already registered\");\r\n      _;\r\n   }\r\n\r\n    function registerCandidate(string calldata _name, string calldata _imageHash) public candidateNoExist(msg.sender) {\r\n        //check if candidate already registered\r\n        require(msg.sender != address(0));\r\n        \r\n        candidatesIds.increment();\r\n        uint candidateId = candidatesIds.current();\r\n        address _address = address(msg.sender);\r\n        Candidate memory newCandidate = Candidate(candidateId, 0, _name, _imageHash, _address);\r\n        candidates[_address] = newCandidate;\r\n        accounts[candidateId] = msg.sender;\r\n        emit candidateCreated(_address, _name);\r\n    }\r\n\r\n      /* fetches all candidates */\r\n    function getCandidates() public view returns ( Candidate[] memory) {\r\n        uint itemCount = candidatesIds.current();\r\n\r\n        Candidate[] memory candidatesArray = new Candidate[](itemCount);\r\n        for (uint i = 0; i < itemCount; i++) {\r\n            uint currentId = i + 1;\r\n            Candidate memory currentCandidate = candidates[accounts[currentId]];\r\n            candidatesArray[i] = currentCandidate;\r\n        }\r\n        return candidatesArray;\r\n    }\r\n\r\n\r\n    function vote(address _forCandidate) public candidateRegistred(_forCandidate){\r\n        require(voter[msg.sender]== false, 'User is already vote');\r\n\r\n        voter[msg.sender] = true;\r\n        candidates[_forCandidate].totalVote += 1;\r\n        \r\n        emit Voted(_forCandidate, msg.sender, candidates[_forCandidate].totalVote);\r\n    }\r\n\r\n}",
  "sourcePath": "C:/Users/sodaba ulomi/Desktop/vote/contracts/VoteImage.sol",
  "compiler": {
    "name": "solc",
    "version": "0.8.7+commit.e28d00a7.Emscripten.clang"
  },
  "schemaVersion": "3.3.3",
  "updatedAt": "2022-06-11T02:11:19.797Z",
  "networkType": "ethereum",
  "devdoc": {
    "kind": "dev",
    "methods": {},
    "version": 1
  },
  "userdoc": {
    "kind": "user",
    "methods": {},
    "version": 1
  }
}